:020000040000fa
:10000000f8ff0320a14d0000d9610000dd61000070
:10001000e5610000e9610000ed6100000000000002
:10002000000000000000000000000000f56100007a
:10003000e161000000000000f5610000f5610000d2
:10004000f5610000f5610000f5610000f561000058
:10005000f5610000f5610000f5610000f561000048
:10006000f5610000f5610000f5610000f561000038
:10007000f5610000f5610000f5610000f561000028
:10008000f5610000f5610000f5610000f561000018
:10009000f5610000f5610000f5610000f561000008
:1000a000f5610000f5610000f5610000f5610000f8
:1000b000f5610000f5610000f5610000f5610000e8
:1000c000f5610000f5610000f5610000f5610000d8
:1000d000f5610000f5610000f5610000f5610000c8
:1000e000f5610000f5610000000000000000000064
:1000f00000000000f5610000f5610000f5610000fe
:10010000f5610000f5610000f5610000f561000097
:10011000f5610000f5610000f5610000f561000087
:10012000f5610000f5610000f5610000f561000077
:10013000f5610000f5610000f5610000f561000067
:10014000f5610000f5610000f5610000f561000057
:10015000f5610000f5610000f5610000f561000047
:10016000f5610000f5610000f5610000f561000037
:10017000f5610000f5610000f5610000f561000027
:10018000f5610000f5610000f5610000f561000017
:10019000f56100009d5c0000f5610000f561000064
:1001a000f5610000f5610000f5610000f5610000f7
:1001b000f5610000f5610000f5610000f5610000e7
:1001c000f5610000f5610000f5610000f5610000d7
:1001d000f5610000f5610000f5610000f5610000c7
:1001e000f5610000f5610000f5610000f5610000b7
:1001f000f5610000f5610000f5610000f5610000a7
:10020000f5610000f5610000f5610000f561000096
:10021000f5610000f5610000f5610000555d00002a
:10022000f5610000f5610000f5610000f561000076
:10023000f5610000f5610000f5610000f561000066
:10024000f5610000f5610000f5610000f561000056
:10025000f5610000f5610000f5610000f561000046
:04026000f561000044
:020000040000fa
:10026400f8b500bff8bc08bc9e4670476158000052
:10027400f8b500bff8bc08bc9e4670473d58000066
:020000040000fa
:1002840080b500af05f0b0fe03469bb2184680bdb2
:1002940080b483b000af78600a4b5a687b681a60f8
:1002a400084b9a687b685a60064bda687b689a60e8
:1002b400054b5a687b68da6000bf0c37bd465df8b1
:1002c400047b7047f0240020f825002080b483b01c
:1002d40000af78607b68b3f90020094b1a807b6813
:1002e400b3f90220064b5a807b68b3f90420044b0f
:1002f4009a8000bf0c37bd465df8047b704700bf91
:100304002026002080b582b000af78607b680a4a5e
:100314001a607b68094a5a607b68094a9a607b685c
:10032400084ada60fff7acff03461a467b681a8274
:1003340000bf0837bd4680bd0000a04017b7513943
:100344005839b43b00409c4680b582b000af0020d1
:1003540005f010ff38600849386805f039fe034697
:10036400002b02d10123fb7101e00023fb71fb7917
:1003740018460837bd4680bd405f000080b483b096
:1003840000af7860044b1a687b681a6000bf0c37b2
:10039400bd465df8047b70476c23002080b584b0b3
:1003a40000af7860fff7d0ff034683f00103dbb2b0
:1003b400002b0dd17b685b6b002b02d1786800f0b9
:1003c40024f87b685b6bfb60fb6801221a7000e019
:1003d40000bf1037bd4680bd80b584b000af7860e3
:1003e4007b685b6b002b02d0786800f04dff7b6864
:1003f4005b6bfb60fb6800221a707b68002283f849
:10040400302000bf1037bd4680bd80b584b000af3a
:1004140078607b68384a5a637b685b6bfb607b68f7
:1004240010331846fff76eff7b6893ed067a7b68fe
:10043400d3ed077a67ee277ac7ed027ad7ed027a11
:10044400fdeee77a17ee903a1ab2fb685a857b689c
:1004540093ed057a7b68d3ed077a67ee277ac7edcb
:10046400027ad7ed027afdeee77a17ee903a1ab2e5
:10047400fb681a857b681a69fb685a627b681a8c68
:10048400fb68da85fb6800229a70fb684ff0000273
:100494005a60fb684ff000021a62fb6800229a85da
:1004a400fb68002283f83020fb684ff00002da601a
:1004b400fb684ff000029a60fb684ff000025a613b
:1004c400fb684ff000021a61fb684ff00002da612a
:1004d400fb684ff000029a610121212005f0aafd7a
:1004e4000648074b4ff0ff3241f68c1105f082f9b4
:1004f40000bf1037bd4680bd2c2300200905000035
:100504006c23002080b59cb000af78607b685b6b87
:100514007b657b6824333b657b68fb644ff0000399
:10052400fb664ff00003bb664ff00003bb6400237f
:1005340087f867304ff000037b644ff000033b649f
:100544004ff00003fb634ff00003bb634ff0000365
:100554007b634ff000033b664ff000033b634ff0b7
:100564000003fb624ff00003bb624ff00003fb6526
:100574004ff00003bb654ff000037b624af2a553c2
:100584003b610023fb60bf4b9b78dbb203f00203ab
:10059400002b04d0786800f077fe00f072be0121d1
:1005a400212005f047fdb84807f110034ff0ff3252
:1005b40041f68c1105f01ef907f10c031846fff7fc
:1005c400ddfe3a69fb689a4204d0786800f05cfe6c
:1005d40000f057be7b681846fff75afefb6cd3ed5c
:1005e400007af0eee77ac7ed087afb6cd3ed017a76
:1005f400f0eee77ac7ed077afb6cd3ed027af0ee02
:10060400e77ac7ed067a7b6dd3ed096afb6c93ed4f
:10061400037ac6ee877ac7ed057a7b6d1b78002bcb
:1006240000f0ac857b6d9b7883f00103dbb2002b7b
:1006340000f081857b6db3f92c207b6db3f92830f4
:100644009a4224da7b6dff2283f83020d7ed057ab5
:10065400f1ee677a7b6dc3ed0d7ad7ed057ab6eed0
:10066400007a67ee877a7b6dc3ed0e7ad7ed057a53
:10067400b6ee007a67ee877a7b6dc3ed0f7a7b6df9
:100684004ff000021a627b6d00229a70e4e27b6de7
:10069400b3f92c301a467b6db3f928305b009a42cb
:1006a40020da7b6d7a695a63d7ed057ab6ee007a63
:1006b40067ee877af1ee677a7b6dc3ed0e7ad7ed3c
:1006c400057ab6ee007a67ee877af1ee677a7b6d8b
:1006d400c3ed0f7a7b6d4ff000021a627b6d00222e
:1006e4009a70b9e27b6db3f92c207b6db3f92a3093
:1006f4009a4213da7b6d4ff000025a637b6d4ff020
:1007040000029a637b6d4ff00002da637b6d4ff059
:1007140000021a627b6d00229a709de27b6db3f930
:100724002c301a467b6db3f92a3019467b6db3f928
:1007340028300b449a4224da7b6dfe2283f8302061
:10074400d7ed057ab6ee007a67ee877a7b6dc3ed56
:100754000d7ad7ed057af1ee677a7b6dc3ed0e7aeb
:10076400d7ed057ab6ee007a67ee877a7b6dc3ed36
:100774000f7a7b6d4ff000021a627b6d00229a7033
:100784006ae27b6db3f92c301a467b6db3f92a30db
:1007940019467b6db3f928305b000b449a4220da8a
:1007a400d7ed057ab6ee007a67ee877af1ee677ace
:1007b4007b6dc3ed0d7a7b6d7a699a63d7ed057a0b
:1007c400b6ee007a67ee877af1ee677a7b6dc3ed59
:1007d4000f7a7b6d4ff000021a627b6d00229a70d3
:1007e4003ae27b6db3f92c301a467b6db3f92a30ab
:1007f4005b009a4213da7b6d4ff000025a637b6d03
:100804004ff000029a637b6d4ff00002da637b6d58
:100814004ff000021a627b6d00229a701ce27b6d1d
:10082400b3f92c3019467b6db3f92a305b007a6d2d
:10083400b2f928201344994228da7b6dfd2283f80b
:100844003020d7ed057ab6ee007a67ee877a7b6db5
:10085400c3ed0d7ad7ed057ab6ee007a67ee877aa6
:100864007b6dc3ed0e7ad7ed057af1ee677a7b6d79
:10087400c3ed0f7a7b6d4ff000021a627b6d00228c
:100884009a70e9e100200041090500007b6db3f98d
:100894002c301a467b6db3f92a3019467b6db3f9b7
:1008a40028300b445b009a4220dad7ed057ab6ee85
:1008b400007a67ee877af1ee677a7b6dc3ed0d7a85
:1008c400d7ed057ab6ee007a67ee877af1ee677aad
:1008d4007b6dc3ed0e7a7b6d7a69da637b6d4ff0c5
:1008e40000021a627b6d00229a70b5e17b6db3f948
:1008f4002c3019467b6db3f92a301a4613465b0037
:100904001344994213da7b6d4ff000025a637b6df6
:100914004ff000029a637b6d4ff00002da637b6d47
:100924004ff000021a627b6d00229a7094e17b6d95
:10093400b3f92c3019467b6db3f92a301a461346a5
:100944005b0013447a6db2f928201344994224dae7
:100954007b6d012283f830207b6d7a695a63d7ed71
:10096400057ab6ee007a67ee877af1ee677a7b6de8
:10097400c3ed0e7ad7ed057ab6ee007a67ee877a84
:10098400f1ee677a7b6dc3ed0f7a7b6d4ff0000259
:100994001a627b6d00229a705ee17b6db3f92c3094
:1009a40019467b6db3f92a301a4613465b001a4484
:1009b4007b6db3f928305b001344994220dad7edfc
:1009c400057af1ee677a7b6dc3ed0d7ad7ed057a82
:1009d400b6ee007a67ee877a7b6dc3ed0e7ad7edbb
:1009e400057ab6ee007a67ee877a7b6dc3ed0f7aef
:1009f4007b6d4ff000021a627b6d00229a702be12e
:100a04007b6db3f92c301a467b6db3f92a309b0009
:100a14009a4213da7b6d4ff000025a637b6d4ff0fc
:100a240000029a637b6d4ff00002da637b6d4ff036
:100a340000021a627b6d00229a700de17b6db3f99e
:100a44002c3019467b6db3f92a309b007a6db2f9cc
:100a540028201344994224da7b6d022283f8302043
:100a6400d7ed057ab6ee007a67ee877af1ee677a0b
:100a74007b6dc3ed0d7a7b6d7a699a63d7ed057a48
:100a8400b6ee007a67ee877af1ee677a7b6dc3ed96
:100a94000f7a7b6d4ff000021a627b6d00229a7010
:100aa400dae07b6db3f92c3019467b6db3f92a304b
:100ab4005b007a6db2f9282013445b00994220da76
:100ac400d7ed057ab6ee007a67ee877a7b6dc3edd3
:100ad4000d7ad7ed057af1ee677a7b6dc3ed0e7a68
:100ae400d7ed057ab6ee007a67ee877a7b6dc3edb3
:100af4000f7a7b6d4ff000021a627b6d00229a70b0
:100b0400aae07b6db3f92c3019467b6db3f92a301a
:100b14001a4613469b001344994213da7b6d4ff037
:100b240000025a637b6d4ff000029a637b6d4ff0b5
:100b34000002da637b6d4ff000021a627b6d0022c3
:100b44009a7089e07b6db3f92c3019467b6db3f94b
:100b54002a301a4613469b0013447a6db2f92820b2
:100b64001344994224da7b6d032283f83020d7edb5
:100b7400057ab6ee007a67ee877af1ee677a7b6dd6
:100b8400c3ed0d7ad7ed057ab6ee007a67ee877a73
:100b9400f1ee677a7b6dc3ed0e7a7b6d7a69da6369
:100ba4007b6d4ff000021a627b6d00229a7053e055
:100bb4007b6db3f92c3019467b6db3f92a301a4694
:100bc40013469b001a447b6db3f928305b00134431
:100bd400994220dad7ed057ab6ee007a67ee877a85
:100be4007b6dc3ed0d7ad7ed057ab6ee007a67ee2c
:100bf400877a7b6dc3ed0e7ad7ed057af1ee677acd
:100c04007b6dc3ed0f7a7b6d4ff000021a627b6d32
:100c140000229a7020e07b6db3f92c3019467b6d6d
:100c2400b3f92a301a4613465b0013445b00994219
:100c340012da7b6d4ff000025a637b6d4ff00002b5
:100c44009a637b6d4ff00002da637b6d4ff0000214
:100c54001a627b6d00229a707b6db3f92c301946b1
:100c64007b6db3f92a301a4613465b0013445b00cc
:100c7400994273da7b6d93f93030b3f1ff3f0dd1b4
:100c84007b6dd3ed037a97ed087ab4eee77af1ee53
:100c940010fa63dd7b6d3a6ada605fe07b6d93f98d
:100ca400303013f1020f0dd17b6dd3ed057a97ed42
:100cb400077ab4eee77af1ee10fa4fdd7b6dfa694c
:100cc4005a614be07b6d93f9303013f1030f0dd172
:100cd4007b6dd3ed077a97ed067ab4eee77af1ee01
:100ce40010fa3bdd7b6dba69da6137e07b6d93f90d
:100cf4003030012b0dd17b6dd3ed027a97ed087a5c
:100d0400b4eee77af1ee10fa28dd7b6d3a6a9a6068
:100d140024e07b6d93f93030022b0dd17b6dd3ed44
:100d2400047a97ed077ab4eee77af1ee10fa15dd5e
:100d34007b6dfa691a6111e07b6d93f93030032bf6
:100d44000cd17b6dd3ed067a97ed067ab4eee77a93
:100d5400f1ee10fa02dd7b6dba699a617b6db3f92d
:100d64002c3019467b6db3f92a301a4613465b00c2
:100d740013445b009942c0f2ba817b6d93ed027a11
:100d84007b6dd3ed047a37ee277a7b6dd3ed067a4b
:100d940037ee277af0ee086ac7ee267ac7ed117aa5
:100da4007b6d93ed037a7b6dd3ed057a37ee277a6d
:100db4007b6dd3ed077a37ee277af0ee086ac7ee3b
:100dc400267ac7ed107a7b6d93ed027ad7ed117a0e
:100dd40077ee677ac7ed0f7a7b6d93ed047ad7ede2
:100de400117a77ee677ac7ed0e7a7b6d93ed067a0a
:100df400d7ed117a77ee677ac7ed0d7a7b6d93edb7
:100e0400037ad7ed107a77ee677ac7ed0c7a7b6dab
:100e140093ed057ad7ed107a77ee677ac7ed0b7a02
:100e24007b6d93ed077ad7ed107a77ee677ac7ed8d
:100e34000a7a97ed0f7ad7ed0e7ab4eee77af1eeef
:100e440010fa14dd97ed0f7ad7ed0d7ab4eee77a48
:100e5400f1ee10fa05ddfb6b3b66012387f8663083
:100e640019e07b6b3b66052387f8663013e097ed4a
:100e74000e7ad7ed0d7ab4eee77af1ee10fa05ddcd
:100e8400bb6b3b66032387f8663004e07b6b3b66f1
:100e9400052387f8663097ed0c7ad7ed0b7ab4ee1c
:100ea400e77af1ee10fa14dd97ed0c7ad7ed0a7ab1
:100eb400b4eee77af1ee10fa05dd3b6bfb65042333
:100ec40087f8653019e0bb6afb65022387f8653053
:100ed40013e097ed0b7ad7ed0a7ab4eee77af1eee8
:100ee40010fa05ddfb6afb65062387f8653004e02c
:100ef400bb6afb65022387f8653097ed187ad7ed56
:100f0400177ab4eee77af1ee10fa04dd97f866305a
:100f140087f8673003e097f8653087f8673097f90a
:100f24006730013b052b00f29a8001a252f823f0ae
:100f34004d0f00007d0f0000ab0f0000d90f000023
:100f4400071000003510000097ed0d7ad7ed0e7aea
:100f540077ee677a9fed827a67ee877ac7ed1b7a20
:100f640097ed0d7ad7ed0e7a77ee277ac7ed1a7ad8
:100f74004ff00003bb6573e097ed0b7ad7ed0c7a65
:100f840077ee677a9fed767a67ee877ac7ed1b7afc
:100f940097ed0b7ad7ed0c7a77ee277ac7ed1a7aac
:100fa400704bbb655ce097ed0f7ad7ed0d7a77ee69
:100fb400677a9fed6b7a67ee877ac7ed1b7a97edb8
:100fc4000f7ad7ed0d7a77ee277ac7ed1a7a664b4a
:100fd400bb6545e097ed0a7ad7ed0b7a77ee677a31
:100fe4009fed5f7a67ee877ac7ed1b7a97ed0a7af1
:100ff400d7ed0b7a77ee277ac7ed1a7a5b4bbb6590
:101004002ee097ed0e7ad7ed0f7a77ee677a9feda3
:10101400547a67ee877ac7ed1b7a97ed0e7ad7ed8f
:101024000f7a77ee277ac7ed1a7a514bbb6517e032
:1010340097ed0c7ad7ed0a7a77ee677a9fed487ac6
:1010440067ee877ac7ed1b7a97ed0c7ad7ed0a7aab
:1010540077ee277ac7ed1a7a464bbb6500e000bfee
:10106400d7ed1a0a97ed1b0a03f0acf987ed120ac3
:10107400d7ed127ab6ee007a67ee877ac7ed097a71
:10108400d7ed097af5eec07af1ee10fa09d5d7ed6d
:10109400097a9fed397a77ee877a7b6dc3ed017a11
:1010a40008e0d7ed097a9fed347a77eec77a7b6d45
:1010b400c3ed017a7b6d93ed017ad7ed167a77ee65
:1010c400277a7b6dc3ed017a7b6d4ff000025a6382
:1010d4007b6d4ff000029a637b6d4ff00002da6380
:1010e4007b6d5a687b6d1a627b6d01229a707b6df1
:1010f400b3f92c309bb201339bb21ab27b6d9a8543
:101104007b6db3f92c3019467b6db3f92a301a463e
:1011140013465b0013445b00994265dd7b6db3f9b4
:101124002a309bb21a46520013445b009bb21ab297
:101134007b6d9a8558e07b6d4ff000025a637b6d9e
:101144004ff000029a637b6d4ff00002da637b6d0f
:101154005a687b6d1a627b6d01229a7044e000bf6d
:101164003acd13bf920a863f920a0640db0f4940ec
:10117400920a06c0920a86bfdb0fc93f7b6d4ff00f
:1011840000025a637b6d4ff000029a637b6d4ff04f
:101194000002da637b6d4ff000021a627b6d00225d
:1011a4009a707b6d4ff000025a607b6d00229a8525
:1011b4007b6d002283f830207b6d4ff00002da60f3
:1011c4007b6d4ff000029a607b6d4ff000025a6114
:1011d4007b6d4ff000021a617b6d4ff00002da6103
:1011e4007b6d4ff000029a617b6d5a683b6d9a608b
:1011f4007b6d9a783b6d1a737b6dd3ed0d7ab6eee9
:10120400007a37ee877a7b6ddb8d07ee903af8ee45
:10121400677a67ee277afdeee77a17ee903a1ab20c
:101224003b6d1a807b6dd3ed0e7ab6ee007a37ee05
:10123400877a7b6ddb8d07ee903af8ee677a67ee7e
:10124400277afdeee77a17ee903a1ab23b6d5a8090
:101254007b6dd3ed0f7ab6ee007a37ee877a7b6d2d
:10126400db8d07ee903af8ee677a67ee277afdeeab
:10127400e77a17ee903a1ab23b6d9a80386dfff711
:1012840025f87037bd4680bd80b485b000af786066
:101294007b681a4a5a637b685b6bfb60fb680022bd
:1012a4009a70fb684ff000021a62fb684ff000026c
:1012b4005a60fb6800229a85fb68002283f830207c
:1012c400fb684ff00002da60fb684ff000029a609e
:1012d400fb684ff000025a61fb684ff000021a618c
:1012e400fb684ff00002da61fb684ff000029a617c
:1012f40000bf1437bd465df8047b70472c230020e3
:1013040080b483b000af78607b680d4a1a607b6854
:101314000c4a5a607b680c4a9a607b680b4ada6014
:101324007b680b4a1a617b684ff07a525a617b687a
:10133400084a9a6100bf0c37bd465df8047b7047cc
:10134400cdcccc3dcdcc4c3e142500200000a0409b
:101354000000204117b7513880b582b000af01209a
:1013640004f008ff38600849386804f031fe034689
:10137400002b02d10123fb7101e00023fb71fb79f7
:1013840018460837bd4680bd785e000080b483b03f
:1013940000af78607b68d3ed007a9fed157af4eea8
:1013a400c77af1ee10fa0adb7b68d3ed007a9fed81
:1013b400107a77eec77a7b68c3ed007a12e07b6817
:1013c400d3ed007af5eec07af1ee10fa00d409e01c
:1013d4007b68d3ed007a9fed067a77ee877a7b6897
:1013e400c3ed007a00bf0c37bd465df8047b70473f
:1013f400db0fc94080b485b000aff860b96087edf9
:10140400010abb6893ed007ad7ed017a67ee277a7b
:10141400bb68c3ed007afb6893ed007abb68d3ed3b
:10142400007af6ee006a67eea67a77ee277afb6812
:10143400c3ed007a00bf1437bd465df8047b7047e6
:1014440080b588b000af786039607b68d3ed047aea
:101454009fed2c7a67ee877ac7ed077a2a4bbb613a
:101464007b685b697b617b689b681b683b61d7ed2c
:10147400047a9fed267a27ee877af3ee0e6ac6ee9b
:10148400877ac7ed037a97ed067ad7ed037a27eecc
:10149400277ad7ed077a67ee276a97ed057ac6eec5
:1014a400877a3b68c3ed017a97ed037ad7ed077a23
:1014b40027ee277ad7ed077a67ee276ad7ed057a04
:1014c40037eea77ac6ee877a3b68c3ed027a7b686b
:1014d4009b69bb603b681a1d3b68083397ed020aa1
:1014e40019461046fff786ffd7ed026a97ed037a97
:1014f400c6ee877a3b68c3ed047a00bf2037bd4649
:1015040080bd00bfdb0fc9403333333fdb0f49409d
:1015140080b584b000af87ed010ac7ed000a274b00
:10152400fb60fb685b7883f00103dbb2002b09d01e
:10153400fb687a689a61fb684ff00002da60fb6826
:1015440001225a70fb68d3ed017a97ed007a67eeb9
:10155400277ac7ed027afb6893ed037ad7ed027a16
:1015640077ee277afb68c3ed057afb6893ed037a7f
:10157400fb68d3ed026ad7ed007a66eea77a77eec0
:10158400277afb68c3ed037afb6893ed067afb6860
:10159400d3ed056afb68d3ed047a66eea77a77ee9d
:1015a400277afb68c3ed067afb6818331846fff701
:1015b400edfe00bf1037bd4680bd00bf7422002081
:1015c40080b483b000af78607b6800225a707b6877
:1015d4004ff00002da607b684ff000029a617b688a
:1015e4004ff000025a6100bf0c37bd465df8047b22
:1015f400704780b483b000af786039607b68da6884
:101604003b685a6200bf0c37bd465df8047b7047e7
:1016140080b483b000af78607b6800221a707b6866
:101624004ff00002da627b684ff000025a607b6878
:101634004ff00002da607b684ff000029a607b682a
:101644004ff000021a617b684ff000029a627b68d7
:101654004ff000021a6300bf0c37bd465df8047bef
:10166400704780b487b000af87ed030ac7ed020a64
:1016740078603960b64b7b617b68d3ed007ab1ee5c
:10168400677ad7ed037a27ee277a7b68d3ed016a70
:10169400d7ed027a66eea77a77ee277ac7ed047a59
:1016a4007b691b78002b29d1aa4b1b6807ee903a63
:1016b400f8ee677adfeda86a86eea77ad7ed047aaa
:1016c40067ee277a7b69c3ed0b7a7b69d3ed097ae0
:1016d400f1ee677a7b69c3ed0a7a7b681a687b69e5
:1016e4005a603b681a687b699a607b685a687b69b0
:1016f400da603b685a687b691a610be17b691b7885
:10170400012b46d17b6993ed0b7a944b1b6807ee52
:10171400903af8ee677a9fed926ac6ee276ad7eda3
:10172400047a66eea77a77ee277a7b69c3ed0b7aa3
:101734007b695a6a7b699a627b6993ed017a7b685b
:10174400d3ed007a77ee277a7b69c3ed017a7b6962
:1017540093ed027a3b68d3ed007a77ee277a7b69c2
:10176400c3ed027a7b6993ed037a7b68d3ed017a4a
:1017740077ee277a7b69c3ed037a7b6993ed047a6c
:101784003b68d3ed017a77ee277a7b69c3ed047a5f
:10179400c0e07b691b78022b4ad17b6993ed0b7afd
:1017a400704b1b6807ee903af8ee677a9fed6e6a0d
:1017b400c6ee276ad7ed047a66eea77a77ee277a23
:1017c4007b69c3ed0b7a7b69d3ed097af1ee677a15
:1017d4007b69c3ed0a7a7b6993ed017a7b68d3ed6b
:1017e400007a77ee277a7b69c3ed017a7b6993ed02
:1017f400027a3b68d3ed007a77ee277a7b69c3edf2
:10180400027a7b6993ed037a7b68d3ed017a77eef4
:10181400277a7b69c3ed037a7b6993ed047a3b688d
:10182400d3ed017a77ee277a7b69c3ed047a71e010
:101834007b6993ed0b7a4d4b1b6807ee903af8eefb
:10184400677a9fed4b6ac6ee276ad7ed047a66ee97
:10185400a77a77ee277a7b69c3ed0b7a7b695a6a9c
:101864007b699a627b6993ed017a7b68d3ed007a98
:1018740077ee277a7b69c3ed017a7b6993ed027a6f
:101884003b68d3ed007a77ee277a7b69c3ed027a61
:101894007b6993ed037a7b68d3ed017a77ee277a3f
:1018a4007b69c3ed037a7b6993ed047a3b68d3edde
:1018b400017a77ee277a7b69c3ed047a7b69da6a69
:1018c4007b691a637b69d3ed017ab5ee007a67ee22
:1018d400877a7b69c3ed057a7b69d3ed037ab5ee2c
:1018e400007a67ee877a7b69c3ed067a7b69d3ed6c
:1018f400027ab5ee007a67ee877a7b69c3ed077ae0
:101904007b69d3ed047ab5ee007a67ee877a7b695a
:10191400c3ed087a7b691b780133dbb203f0030360
:10192400dab27b691a707a687b69143393e803002e
:1019340082e803003a687b691c3393e8030082e879
:10194400030000bf1c37bd465df8047b704700bf31
:101954000c220020fc6180004e7a8acd1060800049
:10196400d5abf94d146080006060a8cd186080008c
:101974003210ff4d80b485b000af78603960104bf1
:10198400fb607b689b685a68fb681a607b689a698d
:10199400fb685a617b689b68d3ed026afb68d3edf0
:1019a400057ab2ee007a27ee877ac6ee877afb686c
:1019b400c3ed017a00bf1437bd465df8047b704760
:1019c4004022002080b483b000af78607b684ff081
:1019d40000029a607b684ff00002da607b680022a4
:1019e4001a747b684ff000029a617b684ff0000222
:1019f400da617b684ff000021a627b684ff00002e4
:101a04005a627b684ff000029a627b684ff00002d2
:101a1400da6200bf0c37bd465df8047b704780b4c2
:101a240089b000af87ed050ac7ed040a87ed031af4
:101a3400b8607960534bfb61fb691b7c0133dab2fc
:101a4400fb691a74fb691b7c072b2ad8fb6993ed8d
:101a5400017abb68d3ed006afb69d3ed087a76eeb0
:101a6400e77a67ee277afb69c3ed027abb681a68e6
:101a7400fb691a62fb6993ed017abb68d3ed016ad5
:101a8400fb69d3ed097a76eee77a67ee277afb698c
:101a9400c3ed037abb685a68fb695a62fb6900228a
:101aa4001a74fb6993ed067abb68d3ed006afb698f
:101ab400d3ed007a66eea77a37ee677afb69d3ed49
:101ac400027a77ee677afb69c3ed0a7abb681a6813
:101ad400fb691a62fb6993ed077abb68d3ed016a6f
:101ae400fb69d3ed007a66eea77a37ee677afb6975
:101af400d3ed037a77ee677afb69c3ed0b7abb68a3
:101b04005a68fb695a62d7ed037af5eec07af1eeb2
:101b140010fa13d5fb6993ed0a7ad7ed047a27ee10
:101b2400277afb69d3ed0b6ad7ed057a66eea77abf
:101b340077ee277afb69c3ed0c7a14e0fb69d3ede9
:101b44000a7ab1ee677ad7ed047a27ee277afb6931
:101b5400d3ed0b6ad7ed057a66eea77a77ee677a4e
:101b6400fb69c3ed0c7a7b681a68fb699a617b6830
:101b74005a68fb69da6100bf2437bd465df8047b0f
:101b8400704700bf4022002080b483b000af78606b
:101b9400054b1b681a467b681a6000bf0c37bd46ac
:101ba4005df8047b704700bf9022002080b584b0ac
:101bb40000af78607b68db69fb60fff7cdfb034611
:101bc40083f00103dbb2002b17d10f4b9b78dbb200
:101bd40003f00203002b12d1fb68002b06d0fb6834
:101be4005b7883f00103dbb2002b02d0786800f04d
:101bf40021f8fb6801221a7002e000bf00e000bf78
:101c04001037bd4680bd00bf0020004180b584b0c0
:101c140000af78607b68db69fb60fb68002b02d057
:101c2400786800f02af9fb6800221a7000bf1037a8
:101c3400bd4680bd80b584b000af7860224bfb60a8
:101c44007868fff75dfb7b68fa68da617b689b68fc
:101c5400db69bb607b6893ed007ad7ed027a67eeaf
:101c6400277afb68c3ed027a7b6893ed017ad7ed9e
:101c7400027a67ee277afb68c3ed017afb6850337a
:101c840019467868fff776fefb681c3319467868b6
:101c9400fff7affcfb68843319467868fff7d0fb85
:101ca4000121212004f0c6f90848094b4ff0ff3206
:101cb4004ff45c7103f09efdfb6801225a7000bf73
:101cc4001037bd4680bd00bff0210020d91c0000a4
:101cd4009022002080b58cb000af78613961fa6041
:101ce400bb6087ed010a00233b624af2a553fb6106
:101cf4007b69db69fb62514b9b78dbb203f0020327
:101d0400002b03d0786900f0b8f894e00121212079
:101d140004f090f94a4807f120034ff0ff324ff4e2
:101d24005c7103f067fd07f11c031846fff72cfff5
:101d34003a6afb699a4203d0786900f09ef87ae027
:101d4400fb6a1b78002b72d0bb6bd3ed007a07f1d2
:101d5400240207f1280311461846b0ee670a02f080
:101d6400bdfefb6b93ed007afb6ad3ed017ab4ee12
:101d7400e77af1ee10fa06ddfb6a0122da70fb6afb
:101d840000229a7010e0fb6b93ed007afb6ad3edae
:101d9400027ab4eee77af1ee10fa05d5fb6a012275
:101da4009a70fb6a0022da70fb6a9b78002b15d0cc
:101db400d7ed0a7a97ed097af9683869f0ee470a9f
:101dc400b0ee670afff74dfcfb6ad3ed137af0ee31
:101dd400670a97ed010afff79bfb1de0d7ed0a7a2e
:101de40097ed097afb6bd3ed006af9683869b0eeb8
:101df400661af0ee470ab0ee670afff710fefb6ab8
:101e0400d3ed207af0ee670a97ed010afff780fb25
:101e1400fb6a4ff000025a640a4bd3f89c20bb6b58
:101e24001a60084bd3f89820fb6b1a6003e07869ba
:101e340000f023f800bf3037bd4680bd00200041cc
:101e4400d91c0000f021002080b485b000af786078
:101e540039607b68db69fb603b6893ed007afb6863
:101e6400d3ed117a77ee277a3b68c3ed007a00bf91
:101e74001437bd465df8047b704780b584b000af6d
:101e840078607b68db69fb60fb6850331846fff7ba
:101e940099fdfb681c331846fff7bafbfb688433d3
:101ea4001846fff78dfbfb6801225a7000bf1037fc
:101eb400bd4680bd2de9f04383b0cde9002390f801
:101ec4004c2002f00f0312f0400f60d0042b05d019
:101ed400082b29d0002003b0bde8f08390ed107ae0
:101ee400d0ed0e7added006a90f87430012b0dd040
:101ef400b4eee77af1ee10fa40f33681f4eee67ac6
:101f0400f1ee10faacbf01200020e4e7b4eee77a6a
:101f1400f1ee10fa40f12681f4eee67af1ee10fad1
:101f240094bf01200020d6e70346d0e91001d3e98d
:101f34000e67dde9008993f87430012b13d0324623
:101f44003b4603f023fe002800f012814ff0010409
:101f540042464b463046394603f0defd08b94ff0a1
:101f64000004e0b2b7e732463b4603f02bfe0028fc
:101f740000f0fc804ff0010442464b46304639469f
:101f840003f0acfd08b94ff00004e0b2a3e712f08f
:101f9400200f79d0013b072b00f2ec80dfe813f02f
:101fa40008002200ea003c00ea00ea00ea005300cc
:101fb40090f9402090f938309df9004090f8741061
:101fc400012907d09a4240f3d980a342b4bf00202c
:101fd400012080e79a4280f2cf80a342ccbf002048
:101fe400012078e7b0f94020b0f93830bdf900405d
:101ff40090f87410012907d09a4240f3c380a34299
:10200400b4bf0020012066e79a4280f2b980a3425f
:10201400ccbf002001205ee7026c836b009c90f82b
:102024007410012907d09a4240f3b080a342b4bf90
:10203400002001204fe79a4280f2a680a342ccbf41
:102044000020012047e7d0e91045d0e90e23dde95f
:10205400006790f8741001290ad0a24273eb0501bd
:1020640080f29880b242bb41acbf0120002032e72d
:10207400944275eb030180f28b80964277eb030365
:10208400acbf0120002026e7013b072b00f284802f
:10209400dfe803f0041c82338282824890f84020f7
:1020a40090f838309df8004090f87410012906d05b
:1020b4009a4275d9a34234bf002001200be79a420b
:1020c4006cd2a3428cbf0020012004e7b0f840206a
:1020d400038fbdf8004090f87410012906d09a428d
:1020e40062d9a34234bf00200120f4e69a4259d2b7
:1020f400a3428cbf00200120ede6026c836b009ca0
:1021040090f87410012906d09a4251d9a34234bfe1
:1021140000200120dfe69a4248d2a3428cbf00206f
:102124000120d8e6d0e91045d0e90e23dde90067a7
:1021340090f8741001290ad0ab4208bfa2423bd2e6
:10214400bb4208bfb2422cbf01200020c3e69d421f
:1021540008bf94422ed29f4208bf96422cbf012052
:102164000020b8e60020b6e60020b4e60020b2e67f
:102174000020b0e60020aee60020ace60020aae68f
:102184000020a8e60020a6e60020a4e60020a2e69f
:102194000020a0e600209ee600209ce600209ae6af
:1021a400002098e6002096e6002094e6002092e6bf
:1021b400002090e600208ee600208ce690f84c305b
:1021c40003f00f03013b072b15d8dfe803f00408e5
:1021d400140c14141410836c187800217047836c49
:1021e400188800217047836c186800217047836c3d
:1021f400d3e900017047002000217047f0b50027a3
:10220400be46734600eb8706c519c16a026d541cad
:1022140004657468e4568c540133dbb295f82420c9
:102224009a42f2d80137ffb290f85530bb42e8d851
:10223400f0bdb8b110b40446038899420dd09bb1e7
:10224400002301339bb204ebc30034f833208a42e9
:1022540003d0002af5d1002001e039b140685df8cf
:10226400044b7047002070470020f8e70020f6e791
:1022740010b403464ff6ff7223f8042b00f1240434
:102284002146002243f8042b01f8012ba342f9d183
:10229400164bc36200220023c0e90e23c0e91023b9
:1022a4000023836480f84c3080f84d30036580f857
:1022b400543080f85530a0f85630a0f85830a0f8c3
:1022c4005a3080f85c300366436680f86830c36631
:1022d4004ff400530367012280f874200363044b16
:1022e4001b6898625df8044b704700bfa80000208b
:1022f4004c260020f8b5044690f84d30013b072bde
:1023040000f2f180dfe813f043001300ef0008004f
:1023140032003200cb00b400b0f85a300133a0f8d8
:102324005a30b0f858300133a0f85830f8bdb0f83e
:1023340058305a1ca0f85820b0f856209a4205d9b3
:10234400b4f85a300133a4f85a30f8bd0023a0f889
:102354005830fff753ff94f85430226d1344b3f50b
:10236400005f84bf002384f84d30e9e7fff726ffc0
:1023740006460f4602460b462046fff79bfd18b162
:10238400042384f84d30f8bdc4e91067f8bdb0f8f3
:1023940058305a1ca0f85820b0f856209a4240d819
:1023a4000023a0f8583090f85430026d1344b3f56c
:1023b400005f84bf002303650027be46734604eb19
:1023c4008706e519e16a226d501c20657068c056c5
:1023d40088540133dbb295f824209a42f2d80137ad
:1023e400ffb294f85530bb42e8d8226de36e9a42ae
:1023f40017d3012384f868302046fff7dffe064632
:102404000f4602460b462046fff754fdc0b1236e2b
:10241400002b18db236d13b3b4f85820d2b16366d4
:1024240022e02046fff7cafe06460f4602460b4648
:102434002046fff73ffd18b194f86830002be6d131
:10244400c4e91067f8bd636600232365082384f894
:102454004d30f8bd94f854209b1a636604e094f858
:102464005420236f9b1a6366072384f84d30f8bd0c
:10247400b0f858305a1ca0f85820b0f856209a42a8
:1024840031d80023a0f8583090f85430426e1344e9
:102494004366002b27db022380f84d30f8bdb0f8eb
:1024a40058305a1ca0f85820b0f856209a421ad82e
:1024b4000023a0f8583090f85430026d1344b3f55b
:1024c400005f84bf00230365fff798fe636e226def
:1024d4009b1a226e934203d9216f0b449a4202d372
:1024e400002384f84d30f8bd90f84d300b7090f80f
:1024f40055304b70b0f856308b70b0f856301b0a1c
:10250400cb70036d0b71036d1b0a4b71b0f8523025
:102514008b7190f85330cb71c36a0b72c36a1b0a78
:102524004b72c38d8b7290f82f30cb72036e0b738a
:10253400036e1b124b73b0f962308b7390f96330e6
:10254400cb73436e0b74436e1b124b74b0f966303d
:102554008b7490f96730cb74036f0b75036f1b0a90
:102564004b75b0f872308b7590f87330cb75036b84
:102574000b76036b1b0a4b76438e8b7690f83330c5
:10258400cb7682230b771d2070472de9f04f85b061
:10259400032a40f218824b78013bdbb2072b00f28e
:1025a400188203920d460446002380f84d3080f8cb
:1025b4005530a0f85a300365c978aa7802eb012295
:1025c40092b2a0f85620a0f8582000200021c4e9b7
:1025d400100184f85430022284f85c2084f86830b6
:1025e40063666b78002b00f0af804ff0040800277f
:1025f400dff810a44ff4005b91e0ab195978aa5da1
:1026040002eb012292b20292daf8002000921068e2
:10261400da78997801eb022189b2fff70afe86463f
:10262400002800f0d2810088009949680b889842fc
:1026340010d0002b00f0c981002301339bb203ebbf
:10264400430201ebc20c31f83220904204d0002a3c
:10265400f3d1bae118468c46002800f0b681bcf1eb
:10266400000f00f0b281dcf81430029970469847ec
:1026740004eb87035860002833d1a6e1daf8003070
:102684001868ab19da78997801eb022189b2fff75f
:10269400d0fd002800f0a38104eb8702506020e005
:1026a400daf800301868ab19da78997801eb02216e
:1026b40089b2fff7befd002800f09481026804eba4
:1026c40087035a600de004eb8701aa1950789378c8
:1026d4001b0403eb0023a85d0344d27803eb0263dd
:1026e4004b602e443279e31983f8242094f8543053
:1026f4001344dbb284f8543094f85c100a4484f830
:102704005c209bfbf3f203fb02f3236708f106084a
:102714005ffa88f80137ffb26b78bb4216d915f817
:10272400089008f10106f6b2b9f1030f00f25481e2
:1027340001a353f829f000bfcb260000ff250000b9
:1027440081260000a52600004ff0040815f8083083
:1027540084f84c3008f10103dbb215f8039008f15a
:102764000206f6b2b9f1030f00f23f81dfe809f087
:1027740062024151a34bd3f800a0daf80000ab1970
:10278400da78997801eb022189b2fff752fd074606
:10279400002800f01a810088daf804100b889842a7
:1027a40010d0002b00f01181002301339bb203eb06
:1027b400430201ebc20e31f83220904204d0002ac9
:1027c400f3d102e118468e46002800f0fe80bef1e7
:1027d400000f00f0fa80ab195b78a95d01eb0321cf
:1027e400def8143089b238469847a06400282dd109
:1027f400ebe0844b1b6818682e44f378b17801eb46
:10280400032189b2fff715fd002800f0f180a064d0
:102814001ce07c4b1b6818682e44f378b17801ebfc
:10282400032189b2fff705fd002800f0e480036866
:10283400a3640be0aa19517893781b0403eb0123da
:10284400a95d0b44d27803eb0263a36408f1060389
:10285400dbb294f84c2002f00f0e0ef1ff31072981
:1028640000f2cc80dfe801f0043cca45cacaca546d
:10287400e85c0021c4e90e0112f0800f03bf42f0ae
:10288400200284f84c2008f10a0803eb0e085ffad2
:1028940088f805eb08035a7815f8080000eb0220c5
:1028a4009a7800eb0240db7800eb0360206602f0cc
:1028b40090f9e06608f10403dbb2eb5c84f8743051
:1028c40008f105085ffa88f3039a9a426dd9eb5c24
:1028d400012b6fd12046fff771fcc4e9100169e0b8
:1028e400e9184978e85c00eb0120c117c4e90e013e
:1028f400c2e7e81846788178090401eb0621ee5c0a
:102904003144c07801eb0061a1630021e163b3e7c6
:1029140005eb030c9cf80100002706029cf802a0ba
:1029240000214fea0a408019794115f803a04ff0bd
:10293400000b1aeb000a4beb010b9cf8036000211f
:10294400300610eb0a0041eb0b0100269cf80470e2
:1029540010eb060941eb070acde9009a9cf805a0a3
:102964004fea0a21dde9009a19eb06094aeb010a4c
:10297400cde9009a9cf806a04fea0a41dde9009ae5
:1029840019eb06094aeb010acde9009a9cf807a065
:102994004fea0a61dde9009a19eb06094aeb010adc
:1029a40048465146c4e90e0166e72046fff706fc97
:1029b400c4e910016b7884f855302b7884f84d30d5
:1029c4004ff0000901e04ff00109484605b0bde8a9
:1029d400f08f4ff00109f8e74ff00109f5e74ff0e8
:1029e4000109f2e74ff00109efe74ff00109ece7c5
:1029f4004ff00109e9e74ff00109e6e74ff001095b
:102a0400e3e700bf4c2600200020704708b50222ef
:102a14000272c268212151704368984708bd08b505
:102a2400c3685b78052b2dd8dfe803f0030e141a76
:102a34002026154a126800211173c26853700223bc
:102a440003724368984708bd0f4b1b6801221a7331
:102a54000023f2e70c4b1b6802221a730023ece7f5
:102a6400094b1b6803221a730023e6e7064b1b6815
:102a740004221a730023e0e7034b1b6805221a7330
:102a84000023dae72223d8e74c26002008b5c268e1
:102a940000215170c26804490968097b91700322be
:102aa40002724368984708bd4c260020a0b130b498
:102ab40004460388994213d053b1002301339bb2d7
:102ac40004ebc30534f8330088420ad00028f5d15a
:102ad40040231370002009e0432313700020704743
:102ae40005460029f4d068680023137030bc704791
:102af40008b502220272c26851704368984708bd43
:102b0400f0b583b00546c368274a126810689a78fe
:102b1400597801eb02210df1070289b2fff7c6ffd4
:102b24009df8071021bb204b19684b6823b3068816
:102b34004b681b88b34224d04b681b881bb300230b
:102b440001339bb24c6803eb4302d70034f83240a4
:102b5400b44204d04c6834f83220002af0d14b68d7
:102b6400db5b93b941212846fff7c2ff03b0f0bdf8
:102b74002846fff7bdfff9e744212846fff7b8ffd1
:102b8400f4e70027ebe70027e9e74b68e9681f440f
:102b9400fb680231984702302872eb6800225a70b1
:102ba4006b6828469847e1e74c260020f0b583b0cf
:102bb4000546c3689a785c7804eb0224a4b2434bbc
:102bc4001b6818680df107022146fff76fff9df897
:102bd4000710002940d13d4b1a689368c3b193682c
:102be4001b88a3423dd093681b88002b3bd0002355
:102bf40001339bb29168de0031f83310a14204d056
:102c0400916831f833100029f2d193689b5b63bb60
:102c14005368002b39d0068853681b88b34239d0d7
:102c240053681b88002b37d0002301339bb25468b0
:102c340003eb4301cf0034f83140b44204d054686c
:102c440034f831100029f0d15368db5b33bb4121e8
:102c54002846fff74dff02e02846fff749ff03b07f
:102c6400f0bd0026d1e70026cfe793682a7a033a1d
:102c7400e9681e447368d2b2033198470028eed045
:102c840042212846fff734ffe9e744212846fff7ad
:102c94002fffe4e70027d7e70027d5e753682a7a10
:102ca400033ae9681f443b69d2b20331984720b123
:102cb40014212846fff71cffd1e702232b72eb688f
:102cc40000225a706b6828469847c8e74c260020b3
:102cd40070b5437a2d2b40f2ae802e230372c26866
:102ce40000235370c26805219170c268d370c26812
:102cf400574b1b68198c1171c1681a8cc2f30722d7
:102d04004a71c268417a9171c1682022ca71c1684e
:102d140082240c72c1684d244c72c16861248c7287
:102d2400c1687224cc72c1680a73c26833215173ba
:102d3400c16832228a73c4683021e173c5683124c2
:102d44002c74c56839266e74c568ac74c468e274a2
:102d5400c4682275c26851755a6a002a6fd0c26865
:102d6400596a09789175c268596a4978d175c268f7
:102d7400596a89781176c268596a09795176c268a4
:102d8400596a49799176c268596ac979d176c26813
:102d9400596a097a1177c268596a497a5177c268bf
:102da400596a897a9177c268596ac97ad177c268af
:102db400596a097b82f82010c268596a897b82f8b3
:102dc4002110c2685b6adb7b82f82230c268204b28
:102dd4001b68197b82f82310c268d98982f82410f1
:102de400c168da89c2f3072281f82520c26819690b
:102df40082f82610c1681a69120a81f82720c1686e
:102e04001a69120c81f82820c1681a69120e81f817
:102e14002920c26882f82a30c268190a82f82b1065
:102e2400c268190c82f82c10c2681b0e82f82d306f
:102e34004368984770bd1521fff75afe70bd2223e1
:102e44002d21c268d154013b152bfad1bee700bf36
:102e54004c260020054a131f6832054943f8041f15
:102e64009342fbd1014b0361704700bfa8230020ac
:102e7400112a00000369054a1a60054a5a60054a86
:102e84009a60054a9a64054a5a647047d52c000032
:102e9400912a0000232a0000b12b0000052b00001a
:020000040000fa
:102ea4000000803f46ec7f3f07b17f3f664e7f3f87
:102eb40072c47e3f2b137e3fb43a7d3f2e3b7c3f52
:102ec400ba147b3f9bc7793ff453783f06ba763fe9
:102ed40005fa743f4414733f0709713fa1d86e3f4c
:102ee40066836c3fab096a3fd36b673f54aa643f68
:102ef40093c5613f06be5e3f21945b3f5a48583fed
:102f040038db543f404d513f0a9f4d3f0bd1493f61
:102f1400fce3453f73d8413ff7ae3d3f4068393f3e
:102f2400f704353fc285303f4aeb2b3f5936273fe4
:102f34009467223fd87f1d3fbb7f183f2768133f0c
:102f4400d6390e3fa1f5083f419c033f205dfc3e6e
:102f5400f35af13e6a33e63e7de8da3ec07bcf3e6b
:102f640007efc33e2844b83ed97cac3eed9aa03e60
:102f74003ca0943e9b8e883ec0cf783e035c603e6e
:102f8400acc5473eaa102f3e6440163e9eb2fa3da1
:102f940023bdc83d3fa9963d87fb483d350ac93c42
:102fa40000000000350ac9bc87fb48bd3fa996bd97
:102fb40023bdc8bd9eb2fabd644016beaa102fbe82
:102fc400acc547be035c60bec0cf78be9b8e88bed6
:102fd4003ca094beed9aa0bed97cacbe2844b8be39
:102fe40007efc3bec07bcfbe7de8dabe6a33e6be60
:102ff400f35af1be205dfcbe419c03bfa1f508bf9e
:10300400d6390ebf276813bfbb7f18bfd87f1dbf3b
:10301400946722bf593627bf4aeb2bbfc28530bf06
:10302400f70435bf406839bff7ae3dbf73d841bf21
:10303400fce345bf0bd149bf0a9f4dbf404d51bf73
:1030440038db54bf5a4858bf21945bbf06be5ebfed
:1030540093c561bf54aa64bfd36b67bfab096abf92
:1030640066836cbfa1d86ebf070971bf441473bfd8
:1030740005fa74bf06ba76bff45378bf9bc779bf0d
:10308400ba147bbf2e3b7cbfb43a7dbf2b137ebfeb
:1030940072c47ebf664e7fbf07b17fbf46ec7fbf61
:1030a400000080bf46ec7fbf07b17fbf664e7fbf85
:1030b40072c47ebf2b137ebfb43a7dbf2e3b7cbf50
:1030c400ba147bbf9bc779bff45378bf06ba76bfe7
:1030d40005fa74bf441473bf070971bfa1d86ebf4a
:1030e40066836cbfab096abfd36b67bf54aa64bf66
:1030f40093c561bf06be5ebf21945bbf5a4858bfeb
:1031040038db54bf404d51bf0a9f4dbf0bd149bf5f
:10311400fce345bf73d841bff7ae3dbf406839bf3c
:10312400f70435bfc28530bf4aeb2bbf593627bfe2
:10313400946722bfd87f1dbfbb7f18bf276813bf0a
:10314400d6390ebfa1f508bf419c03bf205dfcbe6c
:10315400f35af1be6a33e6be7de8dabec07bcfbe69
:1031640007efc3be2844b8bed97cacbeed9aa0be5e
:103174003ca094be9b8e88bec0cf78be035c60be6c
:10318400acc547beaa102fbe644016be9eb2fabd9f
:1031940023bdc8bd3fa996bd87fb48bd350ac9bc40
:1031a40000000000350ac93c87fb483d3fa9963d15
:1031b40023bdc83d9eb2fa3d6440163eaa102f3e80
:1031c400acc5473e035c603ec0cf783e9b8e883ed4
:1031d4003ca0943eed9aa03ed97cac3e2844b83e37
:1031e40007efc33ec07bcf3e7de8da3e6a33e63e5e
:1031f400f35af13e205dfc3e419c033fa1f5083f9c
:10320400d6390e3f2768133fbb7f183fd87f1d3f39
:103214009467223f5936273f4aeb2b3fc285303f04
:10322400f704353f4068393ff7ae3d3f73d8413f1f
:10323400fce3453f0bd1493f0a9f4d3f404d513f71
:1032440038db543f5a48583f21945b3f06be5e3feb
:1032540093c5613f54aa643fd36b673fab096a3f90
:1032640066836c3fa1d86e3f0709713f4414733fd6
:1032740005fa743f06ba763ff453783f9bc7793f0b
:10328400ba147b3f2e3b7c3fb43a7d3f2b137e3fe9
:1032940072c47e3f664e7f3f07b17f3f46ec7f3f5f
:020000040000fa
:1032a40000000000350ac93c87fb483d3fa9963d14
:1032b40023bdc83d9eb2fa3d6440163eaa102f3e7f
:1032c400acc5473e035c603ec0cf783e9b8e883ed3
:1032d4003ca0943eed9aa03ed97cac3e2844b83e36
:1032e40007efc33ec07bcf3e7de8da3e6a33e63e5d
:1032f400f35af13e205dfc3e419c033fa1f5083f9b
:10330400d6390e3f2768133fbb7f183fd87f1d3f38
:103314009467223f5936273f4aeb2b3fc285303f03
:10332400f704353f4068393ff7ae3d3f73d8413f1e
:10333400fce3453f0bd1493f0a9f4d3f404d513f70
:1033440038db543f5a48583f21945b3f06be5e3fea
:1033540093c5613f54aa643fd36b673fab096a3f8f
:1033640066836c3fa1d86e3f0709713f4414733fd5
:1033740005fa743f06ba763ff453783f9bc7793f0a
:10338400ba147b3f2e3b7c3fb43a7d3f2b137e3fe8
:1033940072c47e3f664e7f3f07b17f3f46ec7f3f5e
:1033a4000000803f46ec7f3f07b17f3f664e7f3f82
:1033b40072c47e3f2b137e3fb43a7d3f2e3b7c3f4d
:1033c400ba147b3f9bc7793ff453783f06ba763fe4
:1033d40005fa743f4414733f0709713fa1d86e3f47
:1033e40066836c3fab096a3fd36b673f54aa643f63
:1033f40093c5613f06be5e3f21945b3f5a48583fe8
:1034040038db543f404d513f0a9f4d3f0bd1493f5c
:10341400fce3453f73d8413ff7ae3d3f4068393f39
:10342400f704353fc285303f4aeb2b3f5936273fdf
:103434009467223fd87f1d3fbb7f183f2768133f07
:10344400d6390e3fa1f5083f419c033f205dfc3e69
:10345400f35af13e6a33e63e7de8da3ec07bcf3e66
:1034640007efc33e2844b83ed97cac3eed9aa03e5b
:103474003ca0943e9b8e883ec0cf783e035c603e69
:10348400acc5473eaa102f3e6440163e9eb2fa3d9c
:1034940023bdc83d3fa9963d87fb483d350ac93c3d
:1034a40000000000350ac9bc87fb48bd3fa996bd92
:1034b40023bdc8bd9eb2fabd644016beaa102fbe7d
:1034c400acc547be035c60bec0cf78be9b8e88bed1
:1034d4003ca094beed9aa0bed97cacbe2844b8be34
:1034e40007efc3bec07bcfbe7de8dabe6a33e6be5b
:1034f400f35af1be205dfcbe419c03bfa1f508bf99
:10350400d6390ebf276813bfbb7f18bfd87f1dbf36
:10351400946722bf593627bf4aeb2bbfc28530bf01
:10352400f70435bf406839bff7ae3dbf73d841bf1c
:10353400fce345bf0bd149bf0a9f4dbf404d51bf6e
:1035440038db54bf5a4858bf21945bbf06be5ebfe8
:1035540093c561bf54aa64bfd36b67bfab096abf8d
:1035640066836cbfa1d86ebf070971bf441473bfd3
:1035740005fa74bf06ba76bff45378bf9bc779bf08
:10358400ba147bbf2e3b7cbfb43a7dbf2b137ebfe6
:1035940072c47ebf664e7fbf07b17fbf46ec7fbf5c
:1035a400000080bf46ec7fbf07b17fbf664e7fbf80
:1035b40072c47ebf2b137ebfb43a7dbf2e3b7cbf4b
:1035c400ba147bbf9bc779bff45378bf06ba76bfe2
:1035d40005fa74bf441473bf070971bfa1d86ebf45
:1035e40066836cbfab096abfd36b67bf54aa64bf61
:1035f40093c561bf06be5ebf21945bbf5a4858bfe6
:1036040038db54bf404d51bf0a9f4dbf0bd149bf5a
:10361400fce345bf73d841bff7ae3dbf406839bf37
:10362400f70435bfc28530bf4aeb2bbf593627bfdd
:10363400946722bfd87f1dbfbb7f18bf276813bf05
:10364400d6390ebfa1f508bf419c03bf205dfcbe67
:10365400f35af1be6a33e6be7de8dabec07bcfbe64
:1036640007efc3be2844b8bed97cacbeed9aa0be59
:103674003ca094be9b8e88bec0cf78be035c60be67
:10368400acc547beaa102fbe644016be9eb2fabd9a
:1036940023bdc8bd3fa996bd87fb48bd350ac9bc3b
:020000040000fa
:1036a4000123c376002383767047552903d002296a
:1036b40001d01370704703480170437004231370e2
:1036c400704700bf182600202de9f84f0446002556
:1036d400a04f00f11a0607e055212177657760694c
:1036e400036898470123a376e37e012b69d16069bf
:1036f400c3689847002864d0a37e052b5ed801a236
:1037040052f823f0dd360000213700003d37000079
:10371400593700008f3700009d370000217a237f3e
:103724000b44237760690368984702233246217a61
:103734002046fff7baffd7e7217e237f0b44237788
:1037440060690368984703233246217e2046fff7c9
:10375400acffc9e7627fe1688b5c207f0344237779
:1037640060690368895c9847617f4a1c237a9a429e
:10377400e068acbf052303233246415c2046fff7d3
:1037840094ff637f01336377aee76069036829467a
:1037940098477b78a376a7e7237f552b0bd0022b82
:1037a40009d060690368217f984760694369984735
:1037b400e576657698e7db432377f2e7e576657689
:1037c40092e700251327634e47e0552845d155233a
:1037d40023770123637640e0c0b1637a83420dd33b
:1037e40000f155032377207265770223224602f8fd
:1037f400193f01462046fff758ff2ee06576e3683f
:103804001d7015212046fff773f926e0657624e044
:10381400237e834201d065761fe0237f0344237710
:10382400032304f1190201462046fff73eff14e08a
:10383400237f03442377637fe268d054637f01339b
:10384400dbb26377227a9a4294bf0523032304f1ff
:10385400190201462046fff728ffe37e002b56d1cc
:10386400606983689847002851d060694368984725
:10387400637e052b49d801a252f823f0cf3700000c
:10388400dd37000015380000353800009938000095
:10389400d138000010b973786376dee73378552b9e
:1038a40001d06576d9e7637a834207d300f15503e3
:1038b40023772072657702236376cee76576e36823
:1038c4001d7015212046fff713f9c6e7237f552bfa
:1038d40009d0022b07d0237f834207d039462046e4
:1038e400fff706f9b9e7db432377f4e7e3681b78ce
:1038f4001a2b05d8226952f8233020469847ace7a2
:1039040021212046fff7f4f8a7e76576a5e7124bd7
:103914001b689a6a22b19b6a93f84d30042b01d03c
:10392400bde8f88f6069036998470b4b1a68936a7e
:1039340093f85c300433984207db916a936ab1f8d8
:103944005810b3f85630994208d2024a53680133ea
:103954005360e5e7182600204c260020936a4ff0b8
:103964000008a3f8588060690368022198476069d9
:103974002c4d2b689a6a036892f85c10984760692a
:103984000368217e984760692b689a6a036892f8f5
:103994005a10984760692b689b6ab3f85a100368f9
:1039a400090a98472b68996a9a6a9b6a91f85c603d
:1039b4000236217e0e4492f85a201644b3f85ab0c7
:1039c40006eb1b265ffa86fbc2462f4655464fea96
:1039d40088093b689b6a4b445b685e5d6069036869
:1039e400314698475e445ffa86fb0135adb23a68ca
:1039f400936a434493f82430ab42ead808f10108af
:103a04001ffa88f8936a93f855304345ded8bbf122
:103a1400020f6069036814bf5946fd219847bde849
:103a2400f88f00bf4c260020c16042720376044b1d
:103a34000360044b43600023c3764376704700bfa2
:103a4400cd360000a5360000f8b5c1688a78cb7879
:103a54001b0403eb02234a7813440a7903eb026341
:103a6400027a063ad2b24979b2fbf1f401fb14248a
:103a740014f0ff0f09d1022925d0042909d0012906
:103a840036d01421fff734f8f8bd1421fff730f8cd
:103a9400f8bd92083bd0043b013a91b289000a3147
:103aa4000624c66835196f78aa78120402eb072237
:103ab400365d3244ed7802eb056243f8042f04349a
:103ac400a142eed123e0520821d0023b013a92b246
:103ad400520009320721c5686c1814f8014c6d5c5a
:103ae40004eb052423f8024f02319142f3d10ee096
:103af40092b262b1591e013a13fa82f2c3f107037a
:103b0400c4680c44e45c01f8014f8a42f8d10223f2
:103b14000372c36800225a7043689847f8bd70b5b1
:103b2400c26851798c1c437a9c4255dc9478d378d2
:103b34001b0403eb042354782344147903eb046338
:103b44009279022a21d0042a03d0012a2fd01421e9
:103b540043e08eb20022002e36d0c46814441d689f
:103b6400a570c46814441d682d0ae570c468144423
:103b74005d882571c468144453f8045b2d0e657187
:103b8400043292b2b242e8d31ee08eb20022deb119
:103b9400c46814441d88a570c468144433f8025bd7
:103ba4002d0ae570023292b2b242f1d30ce08eb229
:103bb40056b1013eb6b20336022213f8015bc46863
:103bc400a5540132b242f8d102310172c368002215
:103bd4005a704368984770bd1521fef789ff70bd80
:103be400f8b50646c1688a78cb781b0403eb022338
:103bf4004a7813440a79120698189f5a204b1c6875
:103c040063681b88bb422ad063681b8853b30023b4
:103c140001339bb2656803eb43024feac20e35f8e9
:103c24003250bd4204d0656835f83220002aefd105
:103c3400636833f80e30c3b16368327a053a9e4440
:103c4400def81030d2b20531984798b902233372a6
:103c5400f36800225a70736830469847f8bd4ff0f5
:103c6400000ee5e74ff0000ee2e741213046fef793
:103c74003ffff8bd14213046fef73afff8bd00bf00
:103c84004c260020f8b50646c1688a78cb781b0418
:103c940003eb02234a7813440a79120698189f5ab0
:103ca4001b4b1c6863681b88bb4226d063681b8857
:103cb40033b3002301339bb2656803eb43024fea3d
:103cc400c20e35f83250bd4204d0656835f8322052
:103cd400002aefd1636833f80e30a3b163689e44c1
:103ce400def80c300231984702303072f36800225b
:103cf4005a70736830469847f8bd4ff0000ee9e7f4
:103d04004ff0000ee6e741213046fef7f1fef8bd24
:103d14004c2600200369034a5a62034ada61034ac3
:103d24001a627047233b0000893c0000e53b000019
:0c3d34000369014a9a6270474d3a000092
:020000040000fa
:103d400080680378002b00f0b580d1ed015ad1ede9
:103d5000007adfedb26ab0f9023090ed024a25ee4a
:103d6000a57a05ee103aa7eea77a70b4b5eec07a40
:103d7000f1ee10fac8bff1eec73a99b290ed037aae
:103d8000d8bfdfeda73a20ee070af8eec54a80ee6d
:103d9000267ab6ee006a83ee875ab4ee454af1ee13
:103da00010fa48bfb0ee445a65ee855a67ee857a40
:103db00085ee875ac7ee875af1ee457ab0ee677afc
:103dc000a5eea67a27ee067ab5eec07a77eec76a38
:103dd000f1ee10faf5eec06a3ed4f1ee10fa6adbad
:103de00027ee647a66eee46abdeec77afdeee66a17
:103df00017ee103a9cb216ee903a091b9bb2c91a04
:103e000009b207ee901af8eee77a67ee867afdeed1
:103e1000e77a17ee901a0db22b449bb21c4424b2e1
:103e20001bb2548013809580b0f90610994280f23d
:103e3000a0801180b0f90460b0f906108c4240f304
:103e40008f805180b0f90460b0f906108d4240f3c4
:103e50008280918070bc7047f1ee10fa56d4b5eeb6
:103e6000c05af1ee10fa40f28f8067eea47a66ee47
:103e7000e46afdeee77afdeee66a17ee903a9db24f
:103e800016ee903a491b9bb2c91a09b207ee901a76
:103e9000f8eee77a67ee867afdeee77a17ee901a8b
:103ea0000cb22544adb22b441bb22db213809580c9
:103eb0005480b9e77047b5eec05af1ee10fa40f2ff
:103ec000888067eea47a27ee647afdeee77abdee8d
:103ed000c77a17ee903a9db217ee103a491b9cb282
:103ee000091b0bb207ee903af8eee77a67ee867a96
:103ef000fdeee77a17ee903a1bb21c44a4b22544bb
:103f00002db224b29580548013808de727ee247a59
:103f100066eea46abdeec77afdeee66a17ee103ac9
:103f200016ee904a9bb2a5b2c91a491b09b207ee18
:103f3000901af8eee77a67ee867afdeee77a17eeea
:103f4000901a0cb223449bb21d442db21bb2958033
:103f50001380548068e7b542b8bf968070bc704744
:103f6000b442bff673af5680b0f90460b0f90610e2
:103f70006ce7b0f904609e427ff760af1680b0f93d
:103f80000460b0f9061059e725ee245a27ee247a8a
:103f9000bdeec55abdeec77a15ee103a9cb217eecb
:103fa000103a091b9bb2c91a09b207ee901ab8ee73
:103fb000e77a67ee067afdeee77a17ee901a0db211
:103fc0002c44a4b223441bb224b2138054809580a5
:103fd0002ae725ee245a66eea46abdeec55afdee28
:103fe000e66a15ee103a9cb216ee903a091b9db2a5
:103ff000491b09b207ee901ab8eee77a67ee067a27
:10400000fdeee77a17ee903a1bb21d44adb22c4498
:1040100024b22db254809580138005e7d7b3dd3fdd
:04402000000000009c
:020000040000fa
:10402400694a6a4b128893ed026a9fed697ad3ed6f
:10403400016a9fed685adfed685a684b2de9f0413b
:1040440007ee902a26ee077af8ee677a2ded028bba
:10405400a6ee857a624a856c92ed0b0a5b68dfed09
:10406400618ac36077eee57ad0ed115ac0ed006a3b
:1040740067eea57a86b0044600f1200605f17007c4
:1040840000f1340100f13003324680ed016a80ed25
:10409400077ac0ed066ac0ed047a80ed050acde921
:1040a4000031384604ab04f11801cded028acdeda0
:1040b400038afdf70ffe05f1140194ed040a4a4842
:1040c40000f0fcff94ed0c0a03a902a800f006fd21
:1040d40095ed050ad5ed067ad4ed0d0a20ee270af2
:1040e40005f10c0185ed050a05f14c0001f07efc9b
:1040f400dded036a9ded026ad4ed070a94ed067abc
:10410400dfed3a5a94ed038a95ed040a66eea07a3f
:1041140066ee200ae7ee467a05f104084146e6ee2b
:10412400870a05f12c0028ee258ac4ed0b7ab0ee3f
:10413400481ac4ed0a0a01f0e5f9d5ed017ad4ed87
:104144000b0a95ed030a67eea77a05f1080167eefd
:10415400e77a05f13c00e8ee087af4eee87af1ee4d
:1041640010faccbfb1eee71ab0ee681a01f0f2f91a
:1041740041463846fdf768fed5ed027a9ded026aa8
:10418400dded035ad5ed016a94ed030a27eec67af4
:1041940065eea77aa5eea67a314604f13802e6ee7a
:1041a400267a05f1200084ed087ac4ed097afff738
:1041b400c5fd0f4ba16ba28f19609a8006b0bdecb0
:1041c400028bbde8f08100bf36260020f0240020d9
:1041d4003acd933f3acd133f00000045f825002027
:1041e4007023002000000000f022002084f9223f08
:0441f4002026002061
:020000040000fa
:1041f800b82500201c000000000000000826002050
:104208000800000000000000102600200800000040
:1042180000000000f024002024000000000000003e
:10422800382500202000000000000000d4250020d0
:1042380014000000000000001425002024000000e5
:1042480000000000e8250020100000000000000029
:1042580058250020200000000000000078250020dc
:104268002000000000000000982500202000000029
:1042780000000000642400204c0000000000000042
:10428800942200209800000000000000262600204c
:1042980002000000000000002e260020020000009e
:1042a8000000000036260020020000000000000088
:1042b8004826002002000000000000002026002000
:1042c8000600000000000000f82500201000000093
:1042d8000000000038260020040000000000000054
:1042e8003c260020040000000000000028260020d2
:1042f8000600000000000000302600200600000034
:10430800000000004a260020010000000000000014
:10431800b024002040000000000000004c260020cf
:10432800040000000100000000000020a820002078
:1043380048010000000000000000002030000000dc
:1043480000000000182600200800000000000000ff
:10435800a82300206c0000000000000030000020ae
:104368007800000000000000a800002000200000e5
:1043780000000000f0210020a40000000000000060
:104388002c2300207c0000000000000040260020b4
:104398000400000000000000142400205000000069
:1043a8000000000044260020040000000000000077
:1043b80000000000000000004444444444444444d5
:020000040000fa
:1043c800b0eee07a08b517ee103ac3f3c753013bd5
:1043d800fd2b2ded028bf0eec07a3cd817ee903a0b
:1043e800c3f3c753013bfd2b35d8b4eee77af1eea2
:1043f80010fa0ad5c0ee807a9fed407af0eee77a9f
:10440800f4eec77af1ee10fa45d480ee200ab0ee49
:10441800608a00f023fab5eec08af1ee10fa10eec9
:10442800103a04d4bdec028b00ee103a08bdb5ee8c
:10443800c00adfed337a9fed337af1ee10fa58bff8
:10444800f0ee477abdec028b70ee277a17ee903ac1
:1044580000ee103a08bdf4ee600af1ee10fa2bd126
:10446800f4ee677af1ee10fa33d117ee902a520083
:10447800b2f17f4f10ee903a2ed0b5ee400af1ee31
:1044880010fa1cd05a00b2f17f4f18d0f5ee400a4e
:10449800f1ee10faa9d110ee103a03f00043bdec8a
:1044a800028b43f07f5343f4102343f47d6343f0be
:1044b8000b0300ee103a08bd10ee903ab2e7da0f9f
:1044c800114910ee103a18bf0a4603f0004313438f
:1044d800a8e710ee103aa5e75a0010ee103ab2f12c
:1044e8007f4f03f00043dad1f5eec00a0749084ac6
:1044f800f1ee10fa58bf0a46134393e708e53c1e4d
:10450800db0f4940db0f49c0db0f4940db0f493f58
:04451800e4cb16409a
:020000040000fa
:10451c0008b5024b1b680846984708bda820002028
:10452c0008b5024b5b68984708bd00bfa820002067
:10453c0008b5024b9b68984708bd00bfa820002017
:10454c0008b5024bdb68984708bd00bfa8200020c7
:10455c0070b501f095f81c4c04f11006304601f0d2
:10456c0073f804f594750123ff2204f12801284601
:10457c00fff756fa2846fef769fc2846fef776fc4c
:10458c002846fff7c3fb2846fff7cefb284601f071
:10459c008bf83146284601f071f80c4d2868012142
:1045ac00017301f0e9fd2b68094a5a60094a1a6047
:1045bc00094b2361094b6361094ba361094be3610f
:1045cc0001f044fc70bd00bfa82000204c26002048
:1045dc00cc580000bc5800001d4500002d450000c3
:1045ec003d4500004d45000008b50348d0f8283182
:1045fc0000f59470984708bda820002008b501f07c
:10460c002dfc08bd10b4044c20606160a260e36016
:10461c005df8044b704700bfa8200020044b0360da
:10462c00044b4360044b8360044bc360704700bf72
:10463c001d4500002d4500003d4500004d45000086
:020000040000fa
:10464c003c4a3d4b3d49002010b410741a46996207
:10465c005368dc06fcd442233749c2f88430d1f8c5
:10466c0084305806fbd5364b002277219a631a46c4
:10467c005963d36b5907fcd40223314982f830308b
:10468c00cb6b9a07fcd42e4a136c03f00303032b59
:10469c00fad12c4a01235371d378db07fcd5264a77
:1046ac00294b136253685c07fcd4284b2249536294
:1046bc004b681807fcd441231f4ac1f8ac30d2f820
:1046cc00ac305906fbd541231b49c2f8b030d1f8a8
:1046dc00b0305b06fbd54123174ac1f8dc30d2f869
:1046ec00dc305c06fbd541231349c2f8e430d1f829
:1046fc00e4305806fbd541230f4ac1f82031d2f8db
:10470c0020315906fbd541230b49c2f82431d1f88d
:10471c0024315b06fbd50b4b0d496ff07f4440f207
:10472c00ff704ff4c0721c6158615df8044b9961c5
:10473c001a62704700140040001c00400601300053
:10474c0000100040000800400701010007010200b2
:04475c00d68a0100f8
:020000040000fa
:1047600038b5012001f0eafc072001f0dbfc01f084
:10477000d3fc324b188001f0edfc314b4ff4c051ab
:104780001880062001f022fb4ff4c0510e2001f0ea
:104790002ffb072001f0c6fc012001f0cffc01f047
:1047a000e9fb284800f07efd2748fff73bfc01f0bd
:1047b0001dfc2649264a0d6bb2f90230b2f90440bd
:1047c000ed0380b203d41288821a92b20a671f4a9c
:1047d000116b890302d4c31a9bb253671b4b1a6b2c
:1047e000520302d4001b80b298671a4801f012fbf2
:1047f00001f0b0fc184b188001f08efc174b4ff401
:10480000c0511880002001f0e1fa4ff4c05100209f
:1048100001f0eefa072001f085fc012001f088fc90
:10482000fff7f2fe0e4a136807200133136001f010
:1048300079fc0120bde8384001f07abc2626002032
:104840002e260020f0240020642400200060014176
:1048500020260020f82500204826002036260020ab
:044860003c260020d2
:020000040000fa
:10486400f0eec05af4ee655af1ee10fa60d1f7eeac
:10487400007af4eee75af1ee10fa10b555ddc7ee02
:10488400a55a03230224dfed2b7af4eee75af1ee66
:1048940010fa31dcb0ee657adfed277ab4eee77a10
:1048a400f1ee10fa10ee102a13dd25eea56a0421ac
:1048b400b0ee460a214801f01ff80421b0ee405a38
:1048c4001f48b0ee460a00f071ff85ee000ae5eedf
:1048d400805a012c26ddf1ee655a1a4b03eb840451
:1048e400d4ed007a75eea75a02f0004315ee902a33
:1048f400534000ee103a10bddfed136a9fed137aba
:10490400feee007ae5eea67a1c46f6ee006a77ee35
:10491400e67a35ee877a77eea57ac7ee875ab0ee57
:10492400e57ab9e7002cdfd0d7e701230024aae712
:10493400704700bfa330893effe6db2edc5c00003d
:10494400ec5c0000cc5c0000af673b3fd7b3dd3fbd
:020000040000fa
:1049540038b5012001f0f0fb072001f0e1fb01f084
:10496400d9fb264b264c188001f0f2fb254a94f81b
:1049740030301080002b3cd1234800f091fc2046bd
:10498400fbf7c0fd214801f043fa01f02dfb20495b
:10499400204a0d6bb2f90230b2f90440ed0380b243
:1049a40022d51b4a116b890302d4c31a9bb25367e5
:1049b400174b1a6b520302d4001b80b2986713483a
:1049c40001f026fa01f0c4fb134a14491368088065
:1049d40001331360fff716fe072001f0a1fb01204d
:1049e400bde8384001f0a2bb1288821a92b20a676d
:1049f400d7e700210a4801f0e5fbe3e7262600207b
:104a0400702300202e260020f0240020f82500200a
:104a140000600141202600203c260020482600207a
:044a240061470000e6
:020000040000fa
:104a2800294a2a4b70b41688294d5c8806802d883f
:104a380045807f2cd3e9061208d831442a44013432
:104a48005c800020c3e9061270bc704707ee901a1c
:104a58009fed206ad3ed046ab8ee677a07ee902ad4
:104a680027ee067af8ee677ab4eee67a67ee867a8b
:104a78000122f1ee10fa83ed017ac3ed027a1a7081
:104a880017d493ed056ab4eec67af1ee10faf4ee97
:104a9800e67accbf02200320f1ee10fa10d493ed91
:104aa800057af4ee477af1ee10fac8bf022070bc1e
:104ab8007047f4eee67af1ee10fa4ff00200eed508
:104ac800022070bc704700bf262600203825002031
:084ad8002e2600200000003c26
:020000040000fa
:104ae000dfed277ab4eee70af1ee10fa70b43ddba1
:104af00070ee677a9fed237a67ee877afceee77aad
:104b000017ee903a5a1cff2a29d81f4d1f4c9200cd
:104b1000ae18224496ed006ad2ed006adfed195a14
:104b200007ee903ab8ee677adfed197a9b00a7eeb0
:104b3000670a1d44234495ed007ad3ed007a20eef8
:104b4000250a36ee476a76eee76aa0ee067a70bc72
:104b5000e0ee267a80ed007ac1ed007a70479fed95
:104b60000d6a094d094cf7ee006ad7e7b5eec00aa9
:104b7000f1ee10fa4cbf70ee277af0ee407ab9e70a
:104b8000db0fc94083f92242a4320000a42e0000aa
:084b9000db0fc93c000000002e
:020000040000fa
:104b98007047704700207047101c18bf01207047ed
:104ba8000020704710f1800f04d0002803da40423b
:104bb80040b270477f20704710f5004f04d000289e
:104bc80004da404200b2704747f6ff707047b0f110
:104bd800004f03d00028b8bf404270476ff0004034
:104be8007047b1f1004f08bf00280ed000b502464b
:104bf8000b46002871f1000e03db104619465df8dc
:104c080004fb424261eb4103f7e74ff0ff306ff0de
:104c180000417047b5eec00af1ee10fa48bfb1ee98
:104c2800400a704738b555ec104b0022002310eeaf
:104c3800100a294600f0c4ff10b945ec104b38bde6
:084c480005f100431d46f8e7e9
:020000040000fa
:104c500038b5856c0db16b7853bb204bdfed207af6
:104c600093ed087a1f4c036467ee277a4ff07e536a
:104c7000c0ed117a846404f15c00a36184ed077acd
:104c800000f0fcfd04f14c0000f094fe04f13c0047
:104c900000f0ccfe04f12c0000f06efe04f1700078
:104ca000fcf7caff04f1200000f084fb01236370cd
:104cb0000d4800f001fc0d4800f032fd0c4800f0fa
:104cc00053fd0c4800f008fd0b48fcf771ff0b4842
:104cd00000f028fa01232b7038bd00bf14250020f6
:104ce0000000003a94220020f0220020e022002060
:104cf000d0220020c022002004230020b422002063
:020000040000fa
:104d000030b4264b0122552083f84220662483f8d4
:104d10004620052583f84820222183f8492083f87e
:104d20004a2083f84c2083f84d2083f8502083f8e4
:104d3000512083f8522083f8312083f8332083f800
:104d40003400062083f8355083f836104ff0406564
:104d500083f83840002183f839000220c3f88050de
:104d600083f8c82083f8da1083f8db1083f8b420c6
:104d700083f8bd1083f8502183f8512183f838411e
:104d800083f8c02183f8c90183f8ca0183f8b021f0
:104d900083f8b41183f8b51130bc7047008000412e
:020000040000fa
:104da00008b5194b9847194b9847eff3108172b625
:104db000174ad2f8883043f47003c2f88830bff342
:104dc0004f8fbff36f8f01b962b6124a936823f019
:104dd000010393601346da6812f0010ffbd10d4b0b
:104de00024225a6001229a6001f002fa0a4b23f051
:104df0007f03074a9360094b9847094b9847094b33
:104e0000984701f0dbf8fee7eb5f0000eb5f000086
:104e100000ed00e0006000410000000001530000d0
:084e2000eb5f0000eb5f0000f6
:020000040000fa
:104e2800d0ed017ad0ed036a90ed057a80ed000aa5
:104e380060ee277a36eea76ab4eec67af1ee10fa7b
:104e48000dd5b4ee677af1ee10fa48bff0ee477a66
:104e580077ee677a80ed067ac0ed037a704790edb9
:104e6800047ab4eec67af1ee10fa0dddb4ee677a84
:104e7800f1ee10fac8bff0ee477a77ee677a80ed68
:104e8800067ac0ed037a7047d0ed027ae7ee806ac1
:104e9800b0ee467ac0ed036a80ed067a704700bf2f
:020000040000fa
:104ea80008b5012001f046f9072001f037f9002183
:104eb800124801f085f9012001f036f901f07cf97a
:104ec80000210f4801f07ef901f00af901f076f9a6
:104ed80001f016f80b4800f063fb0b4800f00affde
:104ee8000a4801f089f80a48fbf78dfa094800f0ea
:104ef8007df8bde8084000f0b3be00bf0d540000c7
:104f0800295d000014250020f0240020f825002049
:084f1800702300206424002036
:020000040000fa
:104f200010b5846c8cb1134801f036f9124801f0c9
:104f3000b3f8124801f0b8f8114801f0a5f811488b
:104f4000fcf79dff104801f037f90a4801f094f88a
:104f5000094800f0afff094800f0baff084800f028
:104f60009bff0848fcf754fe074801f019f900239d
:104f7000237010bdf0220020e0220020d02200206b
:0c4f8000c022002004230020b4220020e6
:020000040000fa
:104f8c0000282dd0174b5a8b520710b418d199b159
:104f9c00144a0024137e5b07fcd5538b5b071bd193
:104fac00536803f00703012b936a14bf035520f8d1
:104fbc0014300134a142edd101205df8044b70474f
:104fcc00802407221c765a831a7e5407dfd59a6aee
:104fdc001a7e5207fbd4dae700205df8044b7047c9
:084fec00002070470020014184
:020000040000fa
:104ff400164bdfed177a93ed087a10b567ee277a32
:10500400144cc0ed117a036484644ff07e5304f1b0
:105014005c00a36184ed077a00f02efc04f14c00df
:1050240000f0c6fc04f13c0000f0fefc04f12c008e
:1050340000f0a0fc04f17000fcf7fcfd04f120007a
:1050440000f0b6f90123637010bd00bf14250020e1
:085054000000003a9422002044
:020000040000fa
:10505c00174a0123f0b41380136b13f00103fbd137
:10506c004ff080114ff4007708680109c40004f474
:10507c00e06401f070012143c0f38200014303207e
:10508c00a2f848104ff4c05617800725d07201249f
:10509c001072074996800220d38082f82e5082f835
:1050ac002d4090700b6b002bfcd1f0bc704700bff7
:0450bc00001c004391
:020000040000fa
:1050c00003691a78f2b1d3ed036a93ed047a76eeb0
:1050d000877af4eec07af1ee10fa14d5c3ed037ab4
:1050e00093ed027ab4eee77af1ee10fa06d493ed7e
:1050f000017ab4eee77af1ee10fa10dd83ed037a6f
:1051000081ed007a704776eec77af4eec07af1ee60
:1051100010fae3dcf0ee407a83ed030ae0e7b0ee4c
:04512000677aede7d6
:020000040000fa
:1051240070b586680eb1737823bb144d8560044650
:1051340000f05aff82b2a2f132031bb207ee903a9a
:105144009fed0f7a2280f8eee77a00b277eec77a05
:1051540007ee100af8eec76a262287eea67a628066
:1051640032214ff07e5262606880eb80aa60a98091
:1051740085ed037a0123337070bd00bfe82500205c
:04518400000048429d
:020000040000fa
:10518800154a012330b41360936813f00103fbd16f
:105198004ff4805111605361546910480e492043ff
:1051a800052540f2dc545061d56353649364d3649d
:1051b800136553659365146493694ff4004443f091
:1051c800ff0348f238109361946210628b68002bd9
:1051d800fcd130bc704700bf00600141000f26269b
:020000040000fa
:1051e80070b5144b144a0021934206d3134a002584
:1051f800d2e9003123b919b970bd03f8011bf3e7ef
:10520800946858180c3294b11446834208d111f0ae
:10521800030318bf012303eb910102eb8102e7e7c7
:1052280014f8016b03f8016befe703f8015b8342a5
:10523800fbd1dde700000020a8200020f841000095
:020000040000fa
:10524800144bda684ff6ff010a4042f0bf6242f49d
:105258000032da60bff35f8f62b60f4ae02182f84e
:1052680055134ff40010906082f877134ff4000143
:10527800d1605a6a42f480225a625a6942f0100296
:105288005a615a6a42f400325a625a6a42f48032c7
:0c5298005a62704700ed00e000e100e009
:020000040000fa
:1052a400134b14491b88038007ee903a0b88124a6b
:1052b400438007ee103af8ee675ad2ed017ad2ed48
:1052c400026a92ed036ab8ee477a77eee57a36ee33
:1052d400c77a67ee867a27ee067af1ee676a76ee8b
:1052e400c76a80ed027ac0ed017ac0ed036a7047a7
:0c52f400262600202e2600203825002051
:020000040000fa
:105300000e4a38b5002313600d4a0e4c13600e4a46
:105310000e4d13600e4a13600e4a13600e4a53621c
:1053200013610123936000f066ff00f064ffac425c
:1053300000d338bd54f8043b9847f8e744260020d2
:1053400020240020700200001c24002074020000b1
:0c53500014240020182400202424002035
:020000040000fa
:10535c00144a012370b41380136b13f00103fbd1b7
:10536c004ff0801120260868810cc40a04f4e06414
:10537c0001f070012143c0f302400143a2f8481030
:10538c0003204ff4c055072406491680d0721072c2
:10539c009580d38082f82e400b6b002bfcd170bc17
:0853ac00704700bf0020004320
:020000040000fa
:1053b40038b5134c8460054600f016fe82b2a2f1a3
:1053c40032031bb207ee903a9fed0e7a2a80f8ee74
:1053d400e77a00b277eec77a07ee100af8eec76aea
:1053e400262287eea67a6a8032214ff07e526a60c6
:1053f4006080e380a260a18084ed037a38bd00bfa1
:08540400e825002000004842e9
:020000040000fa
:10540c0008b5012000f094fe072000f085fe00f0a6
:10541c007dfe0d4b188000f097fe0c4b18800c484d
:10542c00fff7fcfa032809d0fff7e8f8072000f093
:10543c0073fe0120bde8084000f074be0021054851
:10544c0000f0bcfef0e700bf262600202e26002030
:08545c00f02400205549000076
:020000040000fa
:1054640008b50e4b1a68132a00d808bd00221a602a
:1054740000f040fe0a4b0b491870184600f0d8fba8
:1054840000f040fe084b09491870184600f0d0fba4
:105494000748bde8084000f08fbe00bf3c2600204e
:1054a40030260020f555000028260020395e000033
:0454b400642400204c
:020000040000fa
:1054b80002690ab15378a3b970b40b4b0b4c0c4971
:1054c8000c4e0460416086605c6099600a4d0b4c2c
:1054d80003610121c56059701c610123137070bc00
:1054e8007047012313707047d425002000a08cc595
:1054f80000a08c450000c84217b751380ad7a33b13
:020000040000fa
:1055080070b5c66834462ded028b14f8043b9bb188
:1055180030ee608a2046b1ee410af0ee410a0d46af
:1055280000f020feb0ee480a2046fff779fcbdecfb
:10553800028bf3692b6070bdbdec028b20469fed9a
:10554800030abde8704000f01fbe00bf0000000065
:020000040000fa
:1055580070b5c66834462ded028b14f8043b9bb138
:1055680030ee608a2046b1ee410af0ee410a0d465f
:1055780000f0f8fdb0ee480a2046fff751fcbdecfc
:10558800028bf3692b6070bdbdec028b20469fed4a
:10559800030abde8704000f0f7bd00bf000000003e
:020000040000fa
:1055a800f0b40a4cc4604ff08144094f094e0a4dcb
:1055b8000a490b4a0b4b04600b4c47608660056137
:1055c80044610162c2618361f0bc7047240e59399d
:1055d8004df30e3e0b5d0939cac3074100007a45f9
:0c55e80000a08c45cdcc4c3e00000841da
:020000040000fa
:1055f40038b50e4c0e4825786db9fff727fb0d48da
:10560400faf7ccfe29460c4800f0dcfd00f06cfcf7
:105614000123237038bdfff781fc0648faf7dcfe4e
:1056240000f070fc0023237038bd00bf4a26002020
:0c56340064240020702300205549000071
:020000040000fa
:1056400070470020704700207047002070470020fe
:1056500070477047064b0360064b4360064b836000
:10566000064bc360064b0361064b4361704700bfa6
:105670004156000043560000475600004b560000bc
:105680004f5600005356000041617047084a1168a8
:1056900000230b601268536093601373d38113610e
:1056a00093829361d361138453629362d362704790
:1056b0004c260020074b1a68938a9bb2012b00d915
:1056c0007047938a9bb2591c89b29182063342f883
:0856d0002300f5e74c26002041
:020000040000fa
:1056d80038b5c4680cb163789bb90b4d9fed0b0ac4
:1056e800dfed0b0a9fed0b1ac560034683ed000a38
:1056f800c3ed010a83ed021a281d00f0b1fc012355
:105708006b700123237038bd582500206ec4133cec
:085718002b40ee4017b7513899
:020000040000fa
:1057200038b5c4680cb163789bb90b4d9fed0b0a7b
:10573000dfed0b0a9fed0b1ac560034683ed000aef
:10574000c3ed010a83ed021a281d00f08dfc012330
:105750006b700123237038bd782500200ad7a33b46
:085760006f12033b17b751382b
:020000040000fa
:1057680038b5c4680cb163789bb90b4d9fed0b0a33
:10577800dfed0b0a9fed0b1ac560034683ed000aa7
:10578800c3ed010a83ed021a281d00f069fc01230c
:105798006b700123237038bd982500206ec4133c1c
:0857a8002b40ee4017b7513809
:020000040000fa
:1057b0004b1e00eb830090ed006a50ed016a50ed46
:1057c000027a30ee066a0329e0ee066ab0ee407a0d
:1057d000e0ee267ab0ee670a0dd050ed037ae7eee0
:1057e000007a0529b0ee670a05d150ed047ae7ee9c
:0857f000007ab0ee670a704771
:020000040000fa
:1057f80009b900207047002bfbd010b40c4c606036
:10580800a160e26062780420d2b262702146207002
:105818004a78d007fcd54a78520703d500205df8ae
:10582800044b7047ca681a6001205df8044b704742
:04583800002000410b
:020000040000fa
:10583c0010b5054c227832b9044b13b10448aff3c0
:10584c0000800123237010bdb8250020000000004b
:10585c000000000008b5034b1bb103490348aff32c
:10586c00008008bd00000000bc25002000000000e6
:020000040000fa
:10587c0030b4094b094c0a4d84600a490a4a0b4c56
:10588c00c56001250160426003615d701c61596057
:10589c009a6030bc704700bfd42500200000c8427d
:1058ac0017b7513800a08cc500a08c450ad7a33b74
:020000040000fa
:1058bc00010000003000002000000000000000008b
:1058cc00ffff0000f922000075220000ed2400000b
:1058dc008f2500000d2a00000000000000000000d1
:1058ec0000000000000000000000000000000000ac
:020000040000fa
:1058fc008b1e00eb8300d0ed016a90ed007a50ed29
:10590c00017aa6ee807a0329e0ee077a0dd010ed2d
:10591c00027aa7ee807a0429f0ee477a05d010edd2
:10592c00037aa0ee277af0ee477a20ee270a70472a
:020000040000fa
:10593c00c8b1b9b10c4a10b4014404464042137ebc
:10594c00db07fcd5536803f00703012b14bf237846
